:1000000009C039C020C020C01EC01DC01CC01BC0FC
:100010001AC019C011241FBECFE9CDBF10E0A0E661
:10002000B0E0ECE0F3E002C005900D92A437B10718
:10003000D9F720E0A4E7B0E001C01D92AB38B207C9
:10004000E1F7D9D061C1DCCF1F920F920FB60F92AA
:1000500011248F939F938091740090917500019665
:1000600090937500809374009F918F910F900FBEB5
:100070000F901F9018951F920F920FB60F92112498
:100080008F9385B78F7D85BF8F910F900FBE0F9097
:100090001F90189584E088BB8CE187BB17B887E870
:1000A00086B981E084BB8BE291E00197F1F700C053
:1000B00000000895379885B78C7F85BF8BB7806423
:1000C0008BBF85B7877E806185BF85B7806285BF1E
:1000D00078948895F894379A0895369A3699FECF91
:1000E000089518BA20E030E090E044E056E45A95D4
:1000F000F1F70000BC01022E02C0759567950A94C5
:10010000E2F760FD02C018BA01C048BB2F5F3F4F45
:100110002830310559F786E48A95F1F7000084E02C
:1001200088BB56E45A95F1F7000008950F931F938A
:10013000CF93DF93109275001092740010928A0092
:1001400080E020E030E0A1E0B0E0C8E5D2E004E1EA
:1001500010E04091740050917500463051050CF04C
:1001600045C000C0B199F5CF90E79A95F1F740E00E
:1001700050E0B19B08C0BD01042E01C0660F0A9477
:10018000EAF7862B0AC0B19908C0BD01042E01C050
:10019000660F0A94EAF76095862394E49A95F1F73E
:1001A00000004F5F5F4F4830510519F7B19BD1CF29
:1001B0002115310549F0F801E21BF30BEA58FF4F16
:1001C0008083215031090CC090918A00911104C0A4
:1001D00080938A00823631F4D0937500C093740006
:1001E00080E0B7CF80E024E130E0B3CFDF91CF9162
:1001F0001F910F9108954EDF04E114E0CAE8D0E0AA
:100200008CE0F82E57DF15BE1BBE2FE58AEE90E07E
:10021000215080409040E1F700C00000109275002E
:100220001092740083B7856083BF89B7826089BFED
:1002300078947CDF80918A008037D9F4E6E7F0E09B
:10024000A0E6B0E081E021919D91291380E0CE17D6
:10025000DF07C9F7813011F4F8BA1DC08FE295E7C6
:100260000197F1F700C000008BE63BDFE6E7F0E026
:100270003BC0823711F5E6E7F0E0A0E6B0E081E0B0
:1002800021919D91291380E090E0EA38F907C1F7A8
:10029000813021F708BB2FEB84ED91E021508040A5
:1002A0009040E1F700C0000018BB8FE295E701978E
:1002B000F1F700C000008FE6D8CF823669F40DDF79
:1002C0008FE295E70197F1F700C0000082E609DFB1
:1002D00085B107DF84B1C9CF8FE295E70197F1F7C8
:1002E00000C0000081E6C1CF1192CE17DF07E1F711
:1002F00010928A009FE52AEE80E0915020408040D5
:0C030000E1F700C000007ECFF894FFCFB2
:10030C0061333564663032666663346239666164C3
:04031C0064316233B3
:00000001FF
