:1000000009C021C020C054C01EC01DC01CC01BC0E0
:100010003BC019C011241FBECFE9CDBF10E0A0E640
:10002000B0E0ECE4F2E002C005900D92A036B1071A
:10003000D9F720E0A0E6B0E001C01D92A338B207D6
:10004000E1F7A1D001C1DCCF18BA8AE187BB17B8AC
:1000500087E886B981E084BB8BE291E00197F1F7F4
:1000600000C000000895379881E381BD81EE81BD15
:1000700085B7877E806185BF85B7806285BF7894AC
:100080008895F894379A08951F920F920FB60F92A1
:1000900011248F9385B78F7D85BF8F910F900FBEF1
:1000A0000F901F901895369A3699FECF89E70895DC
:1000B0001F920F920FB60F9211248F939F938091EE
:1000C0007E0090917F00019690937F0080937E0048
:1000D0009F918F910F900FBE0F901F901895FF92D8
:1000E0000F931F93CF93DF9310927F0010927E00A7
:1000F000EEE1F0E061E070E031E0F12C00E610E0CC
:10010000C4ECD9E028C0B299FECF48E34A95F1F794
:1001100080E090E020E0B29B08C0AB01082E02C056
:10012000440F551F0A94E2F7242BA4E2AA95F1F795
:10013000000001968830910571F7B29B0CC0319791
:1001400021F4D8015E962C9302C020938200D093B4
:100150007F00C0937E00832F40917E0050917F00EE
:10016000413D57400CF08F2D882339F0832F1E1608
:100170001F060CF08F2D8111C6CFDF91CF911F91FB
:100180000F91FF90089560DF8EDF893709F04AC034
:1001900083B7856083BF89B7826089BF789412E096
:1001A00008E0CEE7D0E018BB8BE291E00197F1F7D1
:1001B00000C0000010927F0010927E001DC0B29916
:1001C0001FC09FE52AEE80E0915020408040E1F77B
:1001D00000C0000084DF08BB9FEB24ED81E091505C
:1001E00020408040E1F700C0000018BAE0E6F0E0EF
:1001F0001192CE17DF07E1F780917E0090917F008A
:1002000082309105E4F210927F0010927E0018BABD
:10021000809180009091810001969093810080935D
:100220008000C1CF10928100109280001CDF80916D
:1002300080009091810001969093810080938000CE
:0C024000853691059CF3A0CFF894FFCF09
:00000001FF
