:1000000009C039C020C020C01EC01DC01CC01BC0FC
:100010001AC019C011241FBECFE9CDBF10E0A0E661
:10002000B0E0E2E9F3E002C005900D92A437B10719
:10003000D9F720E0A4E7B0E001C01D92AB38B207C9
:10004000E1F7F3D0A4C1DCCF1F920F920FB60F924D
:1000500011248F939F938091740090917500019665
:1000600090937500809374009F918F910F900FBEB5
:100070000F901F9018951F920F920FB60F92112498
:100080008F9385B78F7D85BF8F910F900FBE0F9097
:100090001F90189584E088BB8CE187BB17B887E870
:1000A00086B981E084BB8BE291E00197F1F700C053
:1000B00000000895379885B78C7F85BF8BB7806423
:1000C0008BBF85B7877E806185BF85B7806285BF1E
:1000D00078948895F894379A0895369A3699FECF91
:1000E000089518BA20E030E090E064E046E44A95D4
:1000F000F1F70000AC01022E02C0559547950A9415
:10010000E2F740FD02C018BA01C068BB2F5F3F4F45
:100110002830310559F786E48A95F1F7000084E02C
:1001200088BB46E44A95F1F700000895EF92FF92EC
:100130000F931F93CF93DF9310927500109274006A
:1001400010928A0050E0A0E0B0E041E060E0E1E021
:10015000F0E008E512E00F2EF4E1EF2EF12CF02D87
:100160004BC000C0B1994DC020E72A95F1F780E05F
:1001700090E0B19B09C09F01082E02C0220F331FDF
:100180000A94E2F7522B0BC0B19909C09F01082EC7
:1001900002C0220F331F0A94E2F720955223C4E4D1
:1001A000CA95F1F7000001968830910511F7B19BCF
:1001B00023C0109751F0C7018A1B9B0B8A589F4F91
:1001C000EC015883119750E017C080918A0081118B
:1001D0000AC050938A00523661F410937500009360
:1001E000740050E009C0109375000093740050E053
:1001F00003C050E0A4E1B0E09B2F9095991F992790
:10020000991F842F2091740030917500263031059C
:100210000CF0862F882311F09111A3CFDF91CF919D
:100220001F910F91FF90EF90089534DFCAE8D0E05E
:10023000FF24F39400E00F2EF4E1CF2EF02D68940C
:10024000EE24E2F8102F0F2EFCE0DF2EF02D32DF2F
:1002500015BE1BBE2FE58AEE90E0215080409040F5
:10026000E1F700C00000109275001092740083B78F
:10027000856083BF89B7826089BF789457DF80919A
:100280008A00803759F5E6E7F0E0A0E6B0E02F2DD0
:1002900091918D919813212FCE17DF07C9F7213047
:1002A000A1F4D8BA2FEB84ED91E02150804090402A
:1002B000E1F700C00000E8BA8FE295E70197F1F797
:1002C00000C000008FE60DDF5FC08FE295E7019769
:1002D000F1F700C000008BE604DF56C0823759F505
:1002E000E6E7F0E0A0E6B0E02F2D91918D91981314
:1002F000212FEC17FD07C9F72130A1F4C8BA9FEBF5
:1003000024ED81E0915020408040E1F700C00000E2
:10031000E8BA8FE295E70197F1F700C000008FE699
:10032000E0DE32C08FE295E70197F1F700C00000F0
:100330008BE6D7DE29C0823671F4CFDE8FE295E7F7
:100340000197F1F700C0000082E6CBDE85B1C9DE7F
:1003500084B1C7DE19C08FE295E70197F1F700C0BD
:10036000000081E6BEDE10C01192EC17FD07E1F738
:1003700000938A009FE52AEE80E091502040804063
:10038000E1F700C0000063CFE6E7F0E0EDCFF894BE
:02039000FFCF9D
:10039200613335646630326666633462396661643D
:0403A200643162332D
:00000001FF
