:1000000009C039C020C020C01EC01DC01CC01BC0FC
:100010001AC019C011241FBECFE9CDBF10E0A0E661
:10002000B0E0E2EDF1E002C005900D92A036B1071C
:10003000D9F720E0A0E6B0E001C01D92A338B207D6
:10004000E1F77ED0C4C0DCCF1F920F920FB60F92A3
:1000500011248F939F9380917E0090917F00019651
:1000600090937F0080937E009F918F910F900FBEA1
:100070000F901F9018951F920F920FB60F92112498
:100080008F9385B78F7D85BF8F910F900FBE0F9097
:100090001F90189584E088BB8CE187BB17B887E870
:1000A00086B981E084BB8BE291E00197F1F700C053
:1000B00000000895379885B78C7F85BF8BB7806423
:1000C0008BBF85B7877E806185BF85B7806285BF1E
:1000D00078948895F894379A0895369A3699FECF91
:1000E000089518BA27E030E090E064E040E54A95D2
:1000F000F1F70000AC01022E02C0559547950A9415
:10010000E2F740FD02C018BA01C068BB21503109B6
:1001100068F780E58A95F1F7000084E088BB40E548
:100120004A95F1F70000089510927F0010927E002A
:1001300083B7856083BF89B7826089BF789408954B
:10014000A9DFCEE7D0E0B6DF2FE58AEE90E02150C0
:1001500080409040E1F700C0000081E0C2DFE4DFB2
:1001600080918200813049F48FE295E70197F1F7A1
:1001700000C0000084E0B5DF27C0823049F48FE280
:1001800095E70197F1F700C0000084E0AADF1CC0EA
:10019000833061F4A2DF8FE295E70197F1F700C0A9
:1001A000000085B19EDF84B19CDF0EC08FE295E731
:1001B0000197F1F700C0000083E093DF05C01192C2
:1001C000EC17FD07E1F7BFCFE0E6F0E0F8CFF894D9
:0201D000FFCF5F
:00000001FF
