:1000000009C021C020C048C01EC01DC01CC01BC0EC
:100010001AC019C011241FBECFE9CDBF10E0A0E661
:10002000B0E0E6E1F2E002C005900D92A036B10723
:10003000D9F720E0A0E6B0E001C01D92A338B207D6
:10004000E1F787D0E6C0DCCF18BA8AE187BB17B8E2
:1000500087E886B981E084BB8BE291E00197F1F7F4
:1000600000C00000089581B5816281BD81B58064C2
:1000700081BD789485B7877E806185BFF8940895A7
:10008000369A3699FECF84B195B18530934010F4FD
:100090008EE6089589E708951F920F920FB60F928A
:1000A00011248F939F9380917E0090917F00019601
:1000B00090937F0080937E009F918F910F900FBE51
:1000C0000F901F901895CF93DF9310927F0010929E
:1000D0007E00EEE1F0E061E070E031E0A0E0C0E63B
:1000E000D0E022C0B299FECF4CE34A95F1F780E010
:1000F00090E020E0B29B08C0AB01082E02C0440F84
:10010000551F0A94E2F7242B48E24A95F1F70000C4
:1001100001968830910571F7B29B06C0319711F4B2
:100120002E8F02C020938200832F40917E00509139
:100130007F00413D57400CF08A2F882339F0832FF0
:100140001E161F060CF08A2F8111CCCFDF91CF91A4
:1001500008957ADF12E0CEE7D0E092DF893709F028
:1001600046C010927F0010927E0083B7856083BFE7
:1001700089B7826089BF78948091800090918100D6
:10018000853F91407CF518BB8BE291E00197F1F738
:1001900000C0000012C0B29914C09FE52AEE80E0B2
:1001A000915020408040E1F700C000008CDFE0E685
:1001B000F0E01192CE17DF07E1F780917E00909179
:1001C0007F00823091053CF310927F0010927E00F8
:1001D00018BA49DF48DF8091800090918100853F07
:1001E00091408CF21092810010928000B6CF109254
:1001F00081001092800037DF809180009091810013
:1002000001969093810080938000853691059CF340
:06021000A4CFF894FFCF1B
:00000001FF
